:100000000C943B000C9458000C9458000C9458002D
:100010000C9458000C9458000C9458000C94580000
:100020000C9458000C9458000C9458000C945800F0
:100030000C9458000C9458000C9458000C945800E0
:100040000C9458000C9458000C94B5000C94580073
:100050000C94ED000C9496010C9458000C945800EC
:100060000C9458000C94580055026D026F027102F6
:1000700073025A027D0211241FBECFEFD8E0DEBF0B
:10008000CDBF11E0A0E0B1E0ECE2FCE002C00590E1
:100090000D92AE33B107D9F722E0AEE3B1E001C073
:1000A0001D92A430B207E1F70E94E6010C941406F9
:1000B0000C940000CF93DF93EC0143E050E062E04A
:1000C00071E00E943503892BC9F143E050E066E0FE
:1000D00071E0CE010E943503892B99F143E050E095
:1000E0006AE071E0CE010E943503892B69F143E09B
:1000F00050E06EE071E0CE010E943503892B39F1AA
:1001000043E050E062E171E0CE010E943503892BAB
:1001100009F143E050E066E171E0CE010E94350351
:10012000892BD9F043E050E06AE171E0CE010E94F2
:100130003503892BA9F487E090E014C081E090E0BA
:1001400011C082E090E00EC083E090E00BC084E03C
:1001500090E008C085E090E005C086E090E002C035
:1001600080E090E0DF91CF9108951F920F920FB63B
:100170000F9211248F939F93EF93FF93E09180014F
:10018000F09181018091C600EC57FE4F80838091F1
:100190008201909183010196909383018093820163
:1001A00080918001909181010196909381018093CB
:1001B000800180918001909181018038910520F02B
:1001C0001092810110928001FF91EF919F918F9188
:1001D0000F900FBE0F901F9018951F920F920FB6A1
:1001E0000F9211248F9381E0809300018F910F90E3
:1001F0000FBE0F901F901895442339F02091C00036
:1002000022602093C000A8E001C0A0E1B0E09B0103
:10021000AC010E9414039B01AC0160E074E284EF26
:1002200090E00E94EC022150310941095109BB279D
:10023000A52F942F832F8093C5002093C40088EDB1
:100240008093C10086E08093C200089590910001E0
:100250009923E1F3109200018093C60008950F9353
:100260001F93CF93DF938B01EC01080F191FC01769
:10027000D10721F089910E942601F9CFDF91CF911A
:100280001F910F910895CF93DF93EC0189910E9404
:10029000260188818111FACFDF91CF910C9426013C
:1002A0008091820190918301089540917E01509147
:1002B0007F01FA01EC57FE4F80814F5F5F4F5093F3
:1002C0007F0140937E012091820130918301215072
:1002D000310930938301209382014038510520F089
:1002E00010927F0110927E010895EF92FF920F937A
:1002F0001F93CF93DF938C017B01C0E0D0E080910E
:10030000820190918301892B39F00E945501F801F7
:10031000EC0FFD1F80832196CE15DF0580F3DF9162
:10032000CF911F910F91FF90EF9008951F920F9220
:100330000FB60F9211248F9381E0809301018F916A
:100340000F900FBE0F901F901895ECE7F0E08081A2
:1003500080648083EAE7F0E080818F68808308957D
:10036000EEE7F0E0908121E030E0082E01C0220F9E
:100370000A94EAF7922B90830895EEE7F0E09081DB
:1003800021E030E0082E01C0220F0A94EAF7209500
:10039000292320830895ECE7F0E09081907F9083FB
:1003A0009081982B908308951092010180917A009A
:1003B000806480937A00809101018823E1F3809129
:1003C00078002091790090E0922B0895CF93DF93ED
:1003D000CDB7DEB729970FB6F894DEBF0FBECDBFFD
:1003E00082E084B980E68AB940E060E875E280E0A6
:1003F00090E00E94FC000E94A50180E00E94B001F4
:1004000081E00E94B00182E00E94B00183E00E947E
:10041000B00184E00E94B00185E00E94B0017894B0
:100420005E0184E0A80EB11C6E0197E0C90ED11CDC
:100430000EE311E080E4582E95E2692E91E0792ECA
:1004400022E2E22E21E0F22E3BE2832E31E0932ED7
:1004500066E070E0CE0101960E94750143E050E035
:100460006EE171E0CE0101960E943503892B09F0FF
:1004700070C0BF92AF92DF92CF920E944303F80107
:10048000852D11928A95E9F7C6010E945A000F90B6
:100490000F900F900F9001978730910508F04EC094
:1004A0008C5C9F4FFC010C940E0383B182FB882768
:1004B00080F904C083B183FB882780F91F928F9352
:1004C0009F928F921F930F930E9443030F900F9060
:1004D0000F900F900F900F9037C080E005C081E023
:1004E00003C082E001C083E00E94CB010E94D401DE
:1004F0009F938F93FF92EF92E5CF84E00E94CB0110
:100500000E94D401482E392E85E00E94CB010E9422
:10051000D40123B1229521701F922F939F938F9323
:100520003F924F927F926F921F930F930E944303CB
:100530000FB6F894DEBF0FBECDBF06C06EE271E00D
:100540008EE391E00E942E038EE391E00E9443012E
:100550007FCF43E050E062E371E0CE0101960E945C
:100560003503892B09F074CFBF92AF92DF92CF92FF
:100570000E944303F801852D11928A95E9F725B170
:1005800035B18F8190E0C097819583278270822753
:1005900085B92BB13BB1888590E0C09781958327C1
:1005A000807482278BB92BB13BB1898590E0C097CD
:1005B00081958327807282278BB966E371E08EE391
:1005C00091E00E942E038EE391E00E9443010F9080
:1005D0000F900F900F903CCFA1E21A2EAA1BBB1BCD
:1005E000FD010DC0AA1FBB1FEE1FFF1FA217B307FF
:1005F000E407F50720F0A21BB30BE40BF50B661F15
:10060000771F881F991F1A9469F7609570958095D8
:1006100090959B01AC01BD01CF010895EE0FFF1F26
:100620000590F491E02D09940E941F03A59F900D61
:10063000B49F900DA49F800D911D11240895A29F39
:10064000B001B39FC001A39F700D811D1124911DA6
:10065000B29F700D811D1124911D0895FB01DC01D5
:1006600001900D920020E1F70895FB01DC0141505B
:10067000504030F08D910190801919F40020B9F7A5
:10068000881B990B0895AEE0B0E0E9E4F3E00C9428
:10069000EB050D891E8986E08C831A8309838FEF11
:1006A0009FE79E838D83AE01475E5F4F6F89788D94
:1006B000CE0101960E946503EF81F885E00FF11FDE
:1006C00010822E96E4E00C940706ACE0B0E0EBE676
:1006D000F3E00C94DD057C016B018A01FC011782BB
:1006E0001682838181FFBDC1CE0101964C01F701C5
:1006F0009381F60193FD859193FF81916F0188238A
:1007000009F4ABC1853239F493FD859193FF819152
:100710006F01853229F4B70190E00E944D05E7CFC3
:10072000512C312C20E02032A0F48B3269F030F4CF
:10073000803259F0833269F420612CC08D3239F057
:10074000803339F4216026C02260246023C02860F1
:1007500021C027FD27C030ED380F3A3078F426FF4E
:1007600006C0FAE05F9E300D1124532E13C08AE0BC
:10077000389E300D1124332E20620CC08E3221F4AD
:1007800026FD6BC1206406C08C3611F4206802C0BF
:10079000883641F4F60193FD859193FF81916F01B5
:1007A0008111C1CF982F9F7D9554933028F40C5F11
:1007B0001F4FFFE3F9830DC0833631F0833771F0AB
:1007C000833509F05BC022C0F801808189830E5F08
:1007D0001F4F44244394512C540115C03801F2E0BA
:1007E0006F0E711CF801A080B18026FF03C0652D3B
:1007F00070E002C06FEF7FEFC5012C870E944205B9
:100800002C0183012C852F77222E17C03801F2E0AE
:100810006F0E711CF801A080B18026FF03C0652D0A
:1008200070E002C06FEF7FEFC5012C870E94370593
:100830002C012C852068222E830123FC1BC0832DD4
:1008400090E048165906B0F4B70180E290E00E94AB
:100850004D053A94F4CFF50127FC859127FE81914F
:100860005F01B70190E00E944D0531103A94F1E02C
:100870004F1A51084114510471F7E5C0843611F044
:10088000893639F5F80127FF07C0608171818281BF
:1008900093810C5F1F4F08C060817181882777FDAD
:1008A0008095982F0E5F1F4F2F76B22E97FF09C0AD
:1008B00090958095709561957F4F8F4F9F4F2068E1
:1008C000B22E2AE030E0A4010E947F05A82EA818CD
:1008D00044C0853729F42F7EB22E2AE030E025C0AF
:1008E000F22FF97FBF2E8F36C1F018F4883579F0DA
:1008F000B4C0803719F0883721F0AFC02F2F2061A6
:10090000B22EB4FE0DC08B2D8460B82E09C024FF1A
:100910000AC09F2F9660B92E06C028E030E005C0BF
:1009200020E130E002C020E132E0F801B7FE07C06C
:1009300060817181828193810C5F1F4F06C060814D
:10094000718180E090E00E5F1F4FA4010E947F053F
:10095000A82EA818FB2DFF77BF2EB6FE0BC02B2D9F
:100960002E7FA51450F4B4FE0AC0B2FC08C02B2D93
:100970002E7E05C07A2C2B2D03C07A2C01C0752C3D
:1009800024FF0DC0FE01EA0DF11D8081803311F4BA
:10099000297E09C022FF06C07394739404C0822F7D
:1009A000867809F0739423FD13C020FF06C05A2CEB
:1009B000731418F4530C5718732C731468F4B7019C
:1009C00080E290E02C870E944D0573942C85F5CF32
:1009D000731410F4371801C0312C24FF12C0B70172
:1009E00080E390E02C870E944D052C8522FF17C0E4
:1009F00021FF03C088E590E002C088E790E0B701DE
:100A00000CC0822F867859F021FD02C080E201C01F
:100A10008BE227FD8DE2B70190E00E944D05A51401
:100A200038F4B70180E390E00E944D055A94F7CF67
:100A3000AA94F401EA0DF11D8081B70190E00E94B3
:100A40004D05A110F5CF332009F451CEB70180E256
:100A500090E00E944D053A94F6CFF7018681978188
:100A600002C08FEF9FEF2C96E2E10C94F905FC0198
:100A70000590615070400110D8F7809590958E0FC9
:100A80009F1F0895FC016150704001900110D8F73C
:100A9000809590958E0F9F1F08950F931F93CF936E
:100AA000DF93182F092FEB018B8181FD03C08FEF9E
:100AB0009FEF20C082FF10C04E815F812C813D815D
:100AC000421753077CF4E881F9819F012F5F3F4F64
:100AD00039832883108306C0E885F985812F09951D
:100AE000892B29F72E813F812F5F3F4F3F832E8334
:100AF000812F902FDF91CF911F910F910895FA01CF
:100B0000AA27283051F1203181F1E8946F936E7F4C
:100B10006E5F7F4F8F4F9F4FAF4FB1E03ED0B4E03D
:100B20003CD0670F781F891F9A1FA11D680F791F7E
:100B30008A1F911DA11D6A0F711D811D911DA11D8F
:100B400020D009F468943F912AE0269F112430199F
:100B5000305D3193DEF6CF010895462F4770405D3A
:100B60004193B3E00FD0C9F7F6CF462F4F70405DE9
:100B70004A3318F0495D31FD4052419302D0A9F744
:100B8000EACFB4E0A6959795879577956795BA953E
:100B9000C9F700976105710508959B01AC010A2E04
:100BA00006945795479537952795BA95C9F7620FDB
:100BB000731F841F951FA01D08952F923F924F927F
:100BC0005F926F927F928F929F92AF92BF92CF92DD
:100BD000DF92EF92FF920F931F93CF93DF93CDB7E6
:100BE000DEB7CA1BDB0B0FB6F894DEBF0FBECDBF5E
:100BF00009942A88398848885F846E847D848C842F
:100C00009B84AA84B984C884DF80EE80FD800C8137
:100C10001B81AA81B981CE0FD11D0FB6F894DEBF1A
:0C0C20000FBECDBFED010895F894FFCF8A
:100C2C000101626172006C7531006C753200617388
:100C3C003100617332006170620073776900617317
:100C4C006B0025750025752D25752D2564004552E5
:0E0C5C0052006D7578004144445253455400D7
:00000001FF
