:100000000C9434000C9451000C9451000C94510049
:100010000C9451000C9451000C9451000C9451001C
:100020000C9451000C9451000C9451000C9451000C
:100030000C9451000C9451000C9451000C945100FC
:100040000C9451000C9451000C9409020C94510032
:100050000C9441020C9401030C9451000C94510037
:100060000C9451000C94510011241FBECFEFD8E026
:10007000DEBFCDBF11E0A0E0B1E0EAE0FDE002C0EC
:1000800005900D92AC33B107D9F712E0ACE3B1E0C3
:1000900001C01D92A230B107E1F70E94BB000C9491
:1000A00083060C940000CF93DF93EC0160E071E0D5
:1000B00043E050E00E949D03009719F421E030E0F6
:1000C00056C0CE0164E071E043E050E00E949D0321
:1000D000009719F422E030E04AC0CE0168E071E0F8
:1000E00043E050E00E949D03009719F423E030E0C4
:1000F0003EC0CE016CE071E043E050E00E949D0301
:10010000009719F424E030E032C0CE0160E171E0E4
:1001100043E050E00E949D03009719F425E030E091
:1001200026C0CE0164E171E043E050E00E949D03EF
:10013000009719F426E030E01AC0CE0168E171E0C2
:1001400043E050E00E949D03009719F427E030E05F
:100150000EC0CE016CE171E043E050E00E949D03CF
:10016000009719F020E030E002C028E030E0C9013B
:10017000DF91CF9108952F923F924F925F926F92AD
:100180007F928F929F92AF92BF92CF92DF92EF9227
:10019000FF920F931F93DF93CF93CDB7DEB700D0BD
:1001A00000D000D00DB71EB70F5F1F4F00D00F92C9
:1001B000EDB6FEB60894E11CF11C82E084B980E63D
:1001C0008AB960E875E280E090E040E00E94500269
:1001D0000E94100380E00E941B0381E00E941B0329
:1001E00082E00E941B0383E00E941B0384E00E94C4
:1001F0001B0385E00E941B03789418012801570116
:1002000063E0862E912C800E911E0CE311E057E2E4
:10021000C52E51E0D52E44E2642E41E0742EC1017A
:1002200066E070E00E94E002C20160E271E043E03B
:1002300050E00E949D03009709F09DC000D000D0BF
:10024000EDB7FEB73196ADB7BEB71196AC92B1829D
:10025000938282820E94AB03F80180E411928A9516
:10026000E9F70F900F900F900F90C5010E94530077
:100270008430910509F454C08530910560F48230D2
:10028000910509F449C08330910508F047C00197F2
:1002900009F06CC010C08630910509F445C0863065
:1002A000910508F43FC08730910509F43FC00897D5
:1002B00009F05CC017C083B100D000D000D0EDB70A
:1002C000FEB73196ADB7BEB712961C930E93119739
:1002D0007382628290E08470907095958795959571
:1002E000879517C083B100D000D000D0EDB7FEB71E
:1002F0003196ADB7BEB712961C930E9311977382C9
:10030000628290E08870907023E0959587952A9599
:10031000E1F7848315821FC080E009C081E007C037
:1003200082E005C083E003C084E001C085E00E9454
:1003300036030E943F0300D000D000D0EDB7FEB7D7
:100340003196ADB7BEB712961C930E931197D38218
:10035000C282958384830E94AB03EDB7FEB73696C5
:100360000FB6F894FEBF0FBEEDBF4EC08CE391E018
:100370006AE271E047C0C2016EE271E043E050E022
:100380000E949D03009709F04ACF00D000D0EDB73E
:10039000FEB73196ADB7BEB71196AC92B1829382DB
:1003A00082820E94AB03F80180E411928A95E9F7FA
:1003B00035B125B1D7018C9190E0C0978195822706
:1003C0008270832785B93BB12BB111968C9111971F
:1003D00090E0C09781958227807483278BB93BB1C9
:1003E0002BB112968C9190E0C097819582278072F4
:1003F00083278BB90F900F900F900F908CE391E0B3
:1004000062E371E00E9496038CE391E00E94A302F4
:1004100006CF1F920F920FB60F9211248F939F93C6
:10042000EF93FF93E0910002F09101028091C600EA
:10043000E458FE4F80838091FC019091FD0101966C
:100440009093FD018093FC01809100029091010244
:100450000196909301028093000280910002909196
:1004600001028038910520F01092010210920002E2
:10047000FF91EF919F918F910F900FBE0F901F9062
:1004800018951F920F920FB60F9211248F9381E04F
:1004900080933A018F910F900FBE0F901F90189587
:1004A0000F931F938B019C01442311F460E106C05C
:1004B0008091C00082608093C00068E070E080E0BE
:1004C00090E0A90198010E9455039B01AC0160E0F6
:1004D00074E284EF90E00E947403C901DA0101978D
:1004E000A109B109292F3A2F4B2F55272093C50079
:1004F0008093C40088ED8093C10086E08093C200A1
:100500001F910F910895982F80913A018823E1F36C
:1005100010923A019093C6000895AC0120E030E0BB
:100520000EC0FA01E20FF31FE08180913A018823A7
:10053000E1F310923A01E093C6002F5F3F4F261778
:10054000370778F30895FC01908180913A01882360
:10055000E1F310923A019093C6008181319688238D
:1005600099F780913A018823E1F310923A011092B1
:10057000C60008952091FC013091FD01C901089544
:100580002091FE013091FF01F901E458FE4FE08116
:100590002F5F3F4F3093FF012093FE018091FC01BC
:1005A0009091FD0101979093FD018093FC0120380B
:1005B000310520F01092FF011092FE018E2F089558
:1005C000EF92FF920F931F93CF93DF937C018B01E8
:1005D000C0E0D0E08091FC019091FD01892B39F0C1
:1005E0000E94C002F701EC0FFD1F80832196C01707
:1005F000D10780F3DF91CF911F910F91FF90EF9082
:1006000008951F920F920FB60F9211248F9381E0DD
:1006100080933B018F910F900FBE0F901F90189504
:10062000ECE7F0E0808180648083EAE7F0E080819D
:100630008F6880830895EEE7F0E0908121E030E05C
:1006400002C0220F331F8A95E2F7922B9083089500
:10065000EEE7F0E0908121E030E002C0220F331F8E
:100660008A95E2F72095292320830895ECE7F0E0AE
:100670009081907F90839081982B90830895109221
:100680003B0180917A00806480937A0080913B01E5
:100690008823E1F32091780040917900942F80E045
:1006A00030E0282B392BC9010895629FD001739F38
:1006B000F001829FE00DF11D649FE00DF11D929FFE
:1006C000F00D839FF00D749FF00D659FF00D99273D
:1006D000729FB00DE11DF91F639FB00DE11DF91F61
:1006E000BD01CF0111240895A1E21A2EAA1BBB1B44
:1006F000FD010DC0AA1FBB1FEE1FFF1FA217B307EE
:10070000E407F50720F0A21BB30BE40BF50B661F03
:10071000771F881F991F1A9469F7609570958095C7
:1007200090959B01AC01BD01CF010895FB01DC0157
:1007300001900D920020E1F70895FB01DC0141508A
:10074000504030F08D910190801919F40020B9F7D4
:10075000881B990B0895AEE0B0E0E1EBF3E00C9458
:100760005A060D891E8986E08C831A8309838FEFD0
:100770009FE79E838D839E01275E3F4FCE010196AA
:100780006F89788DA9010E94CF032F813885020FD0
:10079000131FF80110822E96E4E00C947606ABE06D
:1007A000B0E0E5EDF3E00C944C063C012B015A015E
:1007B000FC0117821682838181FD03C06FEF7FEFFA
:1007C000C6C19AE0892E1E010894211C311CF30138
:1007D0002381F20123FD859123FF81912F0188233D
:1007E00009F4B2C1853239F423FD859123FF81914B
:1007F0002F01853229F490E0B3010E94C205E7CFB2
:10080000982FFF24EE249924FFE1FF15D0F09B32AE
:1008100069F09C3228F4903259F0933291F40EC072
:100820009D3249F0903369F441E024C052E0F52A4A
:1008300084E0F82A28C098E0F92A25C0E0E1FE2AE1
:1008400022C0F7FC29C0892F80538A3070F4F6FE4D
:1008500005C0989C902C1124980E15C0E89CE02CA3
:100860001124E80EF0E2FF2A0EC09E3229F4F6FCB5
:100870006BC140E4F42A07C09C3619F450E8F52A0D
:1008800002C0983649F4F20123FD959123FF91911E
:100890002F01992309F0B8CF892F8554833018F0A0
:1008A0008052833038F444E050E0A40EB51E5FE37C
:1008B00059830FC0933631F0933779F0933509F0AF
:1008C00056C020C0F5018081898342E050E0A40E2B
:1008D000B51E610101E010E012C0F501C080D180B9
:1008E000F6FC03C06FEF7FEF02C0692D70E042E0BD
:1008F00050E0A40EB51EC6010E94B7058C015FE74B
:10090000F52214C0F501C080D180F6FC03C06FEF62
:100910007FEF02C0692D70E042E050E0A40EB51EEA
:10092000C6010E94AC058C0150E8F52AF3FE07C011
:100930001AC080E290E0B3010E94C205EA948E2DB5
:1009400090E008171907A8F30EC0F601F7FC85918F
:10095000F7FE81916F0190E0B3010E94C205E110A2
:10096000EA94015010400115110579F7EAC0943658
:1009700011F0993669F5F7FE08C0F5012081318143
:100980004281538184E090E00AC0F5018081918129
:100990009C01442737FD4095542F82E090E0A80E3B
:1009A000B91E9FE6F92257FF09C050954095309532
:1009B00021953F4F4F4F5F4FE0E8FE2ACA01B90132
:1009C000A1012AE030E00E94EE05D82ED21840C0E6
:1009D000953729F41F2D1F7E2AE030E01DC01F2D02
:1009E000197F9F3661F0903720F4983509F0ACC03C
:1009F0000FC0903739F0983709F0A6C004C028E03E
:100A000030E00AC0106114FD146020E130E004C041
:100A100014FD166020E132E017FF08C0F501608187
:100A200071818281938144E050E008C0F5018081AA
:100A30009181BC0180E090E042E050E0A40EB51E40
:100A4000A1010E94EE05D82ED2188FE7F82EF122D0
:100A5000F6FE0BC05EEFF522D91438F4F4FE07C0A1
:100A6000F2FC05C08FEEF82202C01D2D01C0192D29
:100A7000F4FE0DC0FE01ED0DF11D8081803319F4EF
:100A800099EEF92208C01F5FF2FE05C003C08F2D4A
:100A9000867809F01F5F0F2DF3FC14C0F0FE0FC025
:100AA0001E1510F09D2C0BC09D2C9E0C911A1E2D16
:100AB00006C080E290E0B3010E94C2051F5F1E15D0
:100AC000C0F304C01E1510F4E11A01C0EE2404FFA7
:100AD0000FC080E390E0B3010E94C20502FF1DC079
:100AE00001FD03C088E790E00EC088E590E00BC0F0
:100AF000802F867891F001FF02C08BE201C080E276
:100B0000F7FC8DE290E0B3010E94C20506C080E3CD
:100B100090E0B3010E94C2059A94D914C0F3DA940C
:100B2000F101ED0DF11D808190E0B3010E94C2053D
:100B3000DD20A9F706C080E290E0B3010E94C20563
:100B4000EA94EE20C1F743CEF30166817781CB01B1
:100B50002B96E2E10C946806FC0105906150704010
:100B60000110D8F7809590958E0F9F1F0895FC0176
:100B70006150704001900110D8F7809590958E0FCC
:100B80009F1F08950F931F93CF93DF938C01EB0169
:100B90008B8181FF1BC082FF0DC02E813F818C8124
:100BA0009D812817390764F4E881F9810193F9835D
:100BB000E88306C0E885F985802F0995892B31F4F3
:100BC0008E819F8101969F838E8302C00FEF1FEF5E
:100BD000C801DF91CF911F910F910895FA01AA27C3
:100BE000283051F1203181F1E8946F936E7F6E5F70
:100BF0007F4F8F4F9F4FAF4FB1E03ED0B4E03CD01E
:100C0000670F781F891F9A1FA11D680F791F8A1F00
:100C1000911DA11D6A0F711D811D911DA11D20D067
:100C200009F468943F912AE0269F11243019305D21
:100C30003193DEF6CF010895462F4770405D419312
:100C4000B3E00FD0C9F7F6CF462F4F70405D4A335F
:100C500018F0495D31FD4052419302D0A9F7EACF27
:100C6000B4E0A6959795879577956795BA95C9F756
:100C700000976105710508959B01AC010A2E069449
:100C80005795479537952795BA95C9F7620F731F02
:100C9000841F951FA01D08952F923F924F925F923F
:100CA0006F927F928F929F92AF92BF92CF92DF927C
:100CB000EF92FF920F931F93CF93DF93CDB7DEB7E1
:100CC000CA1BDB0B0FB6F894DEBF0FBECDBF099475
:100CD0002A88398848885F846E847D848C849B84CC
:100CE000AA84B984C884DF80EE80FD800C811B81DA
:100CF000AA81B981CE0FD11D0FB6F894DEBF0FBE09
:0A0D0000CDBFED010895F894FFCF78
:100D0A00626172006C7531006C7532006C7533006B
:100D1A006C75340061733100617332006170620076
:100D2A0061736B00256400257500455252006D758C
:0C0D3A007800414444525345540001012C
:00000001FF
